:100000000C942A000C943C0C0C9447000C94470070
:100010000C9447000C9447000C9447000C94470044
:100020000C9447000C9447000C9447000C94470034
:100030000C9447000C9447000C9447000C94470024
:100040000C9447000C9447000C9447000C94470014
:100050000C94470011241FBECFE5D4E0DEBFCDBF16
:1000600010E0A0E6B0E0E2E1F2E202C005900D92FD
:10007000A03DB107D9F710E0A0EDB0E001C01D929E
:10008000A43EB107E1F70E94560C0C9407110C94A2
:100090000000EF92FF920F931F937B018C0120E0F1
:1000A00030E040E05FE40E94490388238CF0C801FF
:1000B000B70120E030E040E05FE40E94C1010E940F
:1000C000A9039B01AC01205030404040504806C07D
:1000D000C801B7010E94A9039B01AC01B901CA0183
:1000E0001F910F91FF90EF900895A0E0B0E0EBE733
:1000F000F0E00C948B10DC012B01FA019C91923002
:1001000008F439C1EB018881823008F433C194309E
:1001100069F4843009F02FC111969C91119789815F
:10012000981709F428C1A5ECB0E025C1843009F482
:1001300021C18230A9F4923009F01DC19A01AD01AC
:1001400088E0EA010990AE01E90109929E0181501F
:10015000C1F7E201898111969C918923818308C1AD
:10016000923009F407C112962D903C901397EB0141
:100170008A819B811496AD90BD90CD90DC901797AD
:10018000EC80FD800E811F819101281B390BB90184
:1001900037FF04C066277727621B730B6032710537
:1001A0000CF061C0121613066CF537014801062EDB
:1001B00004C096948794779467940A94D2F721E0C8
:1001C00030E040E050E004C0220F331F441F551FB1
:1001D0006A95D2F721503040404050402E213F21B7
:1001E00040235123211531054105510521F021E01E
:1001F00030E040E050E079018A01E628F72808293C
:1002000019293CC0232BD1F1260E371E350146019A
:10021000062E04C096948794779467940A94D2F734
:1002200021E030E040E050E004C0220F331F441FC3
:10023000551F6A95D2F721503040404050402A2146
:100240003B214C215D21211531054105510521F04E
:1002500021E030E040E050E059016A01A628B728CB
:10026000C828D9280BC0821593052CF01C01AA249C
:10027000BB24650103C0EE24FF24870111969C91E5
:10028000D20111968C91981709F445C0992339F041
:10029000A80197012A193B094C095D0906C0A6016E
:1002A00095012E193F09400B510B57FD08C01182D3
:1002B0003382228224833583468357831DC081E0A5
:1002C00081833382228288279927DC01821B930B4A
:1002D000A40BB50B84839583A683B7830DC0220F2F
:1002E000331F441F551F24833583468357838281E0
:1002F000938101979383828324813581468157813D
:10030000DA01C9010197A109B1098F5F9F4FAF4F72
:10031000BF4328F30BC0918333822282EA0CFB1C7B
:100320000C1D1D1DE482F5820683178383E0808304
:10033000248135814681578157FF1AC0C901AA27F8
:1003400097FDA095BA2F81709070A070B0705695EF
:10035000479537952795822B932BA42BB52B848318
:100360009583A683B7838281938101969383828349
:10037000DF0101C0D201CD01CDB7DEB7E2E10C94BF
:10038000A710A0E2B0E0E7ECF1E00C9497106983CD
:100390007A838B839C832D833E834F835887E9E048
:1003A000EE2EF12CEC0EFD1ECE010196B7010E943F
:1003B000D2048E010F5E1F4FCE010596B8010E9438
:1003C000D2048A8991E089278A8BC701B801AE01DE
:1003D000475E5F4F0E9475000E94FD03A096E6E015
:1003E0000C94B310A0E2B0E0E8EFF1E00C949710A9
:1003F00069837A838B839C832D833E834F835887C5
:10040000F9E0EF2EF12CEC0EFD1ECE010196B701A6
:100410000E94D2048E010F5E1F4FCE010596B801D7
:100420000E94D204C701B801AE01475E5F4F0E942F
:1004300075000E94FD03A096E6E00C94B310A0E2C4
:10044000B0E0E5E2F2E00C948B1069837A838B8351
:100450009C832D833E834F835887CE010196BE0136
:10046000675F7F4F0E94D204CE010596BE016F5E8A
:100470007F4F0E94D2049985923088F0898982301A
:10048000C8F0943019F4823051F404C0843029F457
:10049000923081F485EC90E0C6C0923049F420E0BF
:1004A0009A858A89981321E02A87CE010996BBC0D4
:1004B000823049F420E09A858A89981321E02A8BBA
:1004C000CE014196B0C02D843E844F8458886D88FB
:1004D0007E888F88988CEE24FF248701AA24BB2471
:1004E000650140E050E060E070E0E0E0F0E0C10174
:1004F00081709070892BE9F0E60CF71C081D191D1E
:100500009A01AB012A0D3B1D4C1D5D1D80E090E062
:10051000A0E0B0E0E614F7040805190520F481E036
:1005200090E0A0E0B0E0BA01A901480F591F6A1F8E
:100530007B1FAA0CBB1CCC1CDD1C97FE08C081E0F5
:1005400090E0A0E0B0E0A82AB92ACA2ADB2A3196B6
:10055000E032F10549F0660C771C881C991C569412
:10056000479437942794C3CFFA85EA892B893C892D
:100570008B859C85280F391F2E5F3F4F17C0CA01FE
:1005800081709070892B61F016950795F794E79428
:1005900080E090E0A0E0B0E8E82AF92A0A2B1B2BC3
:1005A00076956795579547952F5F3F4F77FDE7CF36
:1005B0000CC0440F551F661F771F17FD4160EE0CDE
:1005C000FF1C001F111F21503040403090E05907A0
:1005D00090E0690790E4790760F32B8F3C8FDB0193
:1005E000CA018F779070A070B07080349105A1051A
:1005F000B10561F447FD0AC0E114F10401051105DC
:1006000029F0405C5F4F6F4F7F4F40781A8EFE1786
:1006100011F081E08A8F4D8F5E8F6F8F78A383E01A
:10062000898FCE0149960E94FD03A096E2E10C94C9
:10063000A710A8E1B0E0EFE1F3E00C949710698314
:100640007A838B839C832D833E834F83588789E0F5
:10065000E82EF12CEC0EFD1ECE010196B7010E9492
:10066000D2048E010F5E1F4FCE010596B8010E9485
:10067000D2048985823040F08989823028F0C70110
:10068000B8010E944A0501C08FEF6896E6E00C941D
:10069000B310A8E1B0E0EFE4F3E00C9497106983A5
:1006A0007A838B839C832D833E834F83588789E095
:1006B000E82EF12CEC0EFD1ECE010196B7010E9432
:1006C000D2048E010F5E1F4FCE010596B8010E9425
:1006D000D2048985823040F08989823028F0C701B0
:1006E000B8010E944A0501C08FEF6896E6E00C94BD
:1006F000B310A8E1B0E0EFE7F3E00C949710698342
:100700007A838B839C832D833E834F83588789E034
:10071000E82EF12CEC0EFD1ECE010196B7010E94D1
:10072000D2048E010F5E1F4FCE010596B8010E94C4
:10073000D2048985823040F08989823028F0C7014F
:10074000B8010E944A0501C081E06896E6E00C9479
:10075000B310ACE0B0E0EFEAF3E00C949B106983D7
:100760007A838B839C83CE010196BE016B5F7F4FA2
:100770000E94D2048D81823061F1823050F1843048
:1007800021F48E81882351F12EC02F81388537FDC9
:1007900020C06E812F3131051CF06623F9F023C093
:1007A0008EE190E0821B930B29853A854B855C8511
:1007B00004C056954795379527958A95D2F76623B5
:1007C000B1F050954095309521953F4F4F4F5F4F79
:1007D0000EC020E030E040E050E009C02FEF3FEFD6
:1007E0004FEF5FE704C020E030E040E050E8B9019F
:1007F000CA012C96E2E00C94B710DF92EF92FF92C0
:100800000F931F93FC01E480F58006811781D1804E
:100810008081823048F480E090E0A0E1B0E0E82AF6
:10082000F92A0A2B1B2BA5C0843009F49FC0823003
:1008300021F4EE24FF24870105C0E114F104010531
:10084000110519F4E0E0F0E096C0628173819FEF3A
:10085000623879070CF05BC022E83FEF261B370BAC
:100860002A3131052CF020E030E040E050E02AC091
:10087000B801A701022E04C0769567955795479554
:100880000A94D2F781E090E0A0E0B0E004C0880FC5
:10089000991FAA1FBB1F2A95D2F70197A109B10979
:1008A0008E219F21A023B1230097A105B10521F03E
:1008B00081E090E0A0E0B0E09A01AB01282B392B59
:1008C0004A2B5B2BDA01C9018F779070A070B07052
:1008D00080349105A105B10539F427FF09C0205CDA
:1008E0003F4F4F4F5F4F04C0215C3F4F4F4F5F4F13
:1008F000E0E0F0E02030A0E03A07A0E04A07A0E402
:100900005A0710F0E1E0F0E079018A0127C0603871
:10091000710564F5FB01E158FF4FD801C7018F77DE
:100920009070A070B07080349105A105B10539F4C4
:10093000E7FE0DC080E490E0A0E0B0E004C08FE3EB
:1009400090E0A0E0B0E0E80EF91E0A1F1B1F17FFA1
:1009500005C016950795F794E794319687E01695AC
:100960000795F794E7948A95D1F705C0EE24FF2404
:100970008701EFEFF0E06E2F679566276795902F60
:100980009F77D794DD24D7948E2F8695492F462BB9
:10099000582F5D29B701CA011F910F91FF90EF9069
:1009A000DF900895FC01DB01408151812281622F9B
:1009B0006F7770E0221F2227221F9381892F880FD3
:1009C000822B282F30E0991F9927991F11969C930D
:1009D000119721153105A9F54115510561057105DD
:1009E00011F482E037C082E89FEF13969C938E93B8
:1009F00012979A01AB0167E0220F331F441F551F66
:100A00006A95D1F783E08C930DC0220F331F441FEA
:100A1000551F12968D919C911397019713969C9355
:100A20008E931297203080E0380780E0480780E4FA
:100A3000580758F314962D933D934D935C93179755
:100A400008952F3F310579F4411551056105710570
:100A500019F484E08C93089564FF03C081E08C93C3
:100A600012C01C9210C02F57304013963C932E9307
:100A7000129783E08C9387E0440F551F661F771F02
:100A80008A95D1F7706414964D935D936D937C9322
:100A9000179708951F93DC01FB019C91923008F495
:100AA00047C08081823008F443C0943051F41196DD
:100AB0001C91843099F58181682F70E0611B710968
:100AC0003FC0843021F0923031F48230B9F181811D
:100AD000882389F12DC011961C9111978230F1F075
:100AE00081811817D9F412962D913C911397828128
:100AF00093818217930794F028173907BCF0149656
:100B00008D919D910D90BC91A02D248135814681C0
:100B10005781281739074A075B0718F4112341F05A
:100B20000AC082179307A407B50740F4112319F0F0
:100B300061E070E005C06FEF7FEF02C060E070E041
:100B4000CB011F9108950F931F93DF93CF93CDB7E0
:100B5000DEB7C754D0400FB6F894DEBF0FBECDBF8E
:100B6000FE01E95BFF4F8083A8E3B0E0E8E3F0E03B
:100B700080818D7F8C93A8E3B0E0E8E3F0E0808192
:100B80008B7F8C93ABE3B0E0EBE3F0E08081982FB8
:100B90009F70FE01E95BFF4F8081807F892B8C93E2
:100BA000FE01ED5BFF4F80E090E0A0E8BFE38083B3
:100BB0009183A283B3838E01015C1F4FFE01ED5B25
:100BC000FF4F608171818281938120E030E04AE7AC
:100BD00053E40E941F02DC01CB01F8018083918362
:100BE000A283B383FE01FF9660817181828193812C
:100BF00020E030E040E85FE30E94790388232CF492
:100C000081E090E09EAF8DAF46C0FE01FF9660810F
:100C100071818281938120E03FEF4FE757E40E948A
:100C20001903181664F5FE01ED5BFF4F60817181B9
:100C30008281938120E030E040E251E40E941F0273
:100C4000DC01CB01BC01CD010E944900DC01CB01DC
:100C50009EAF8DAF0FC089E190E09CAF8BAF8BADA5
:100C60009CAD0197F1F79CAF8BAF8DAD9EAD019719
:100C70009EAF8DAF8DAD9EAD009769F716C0FE019A
:100C8000FF9660817181828193810E944900DC011D
:100C9000CB019EAF8DAF8DAD9EAD9AAF89AF89ADC3
:100CA0009AAD0197F1F79AAF89AFA8E3B0E0E8E316
:100CB000F0E0808188608C9380E090E0A0E8BFE362
:100CC0008DAB9EABAFABB8AF6DA97EA98FA998AD28
:100CD00020E030E04AE753E40E941F02DC01CB0130
:100CE00089AB9AABABABBCAB69A97AA98BA99CA920
:100CF00020E030E040E85FE30E94790388232CF491
:100D000081E090E098AB8FA73FC069A97AA98BA931
:100D10009CA920E03FEF4FE757E40E941903181603
:100D20004CF56DA97EA98FA998AD20E030E040E296
:100D300051E40E941F02DC01CB01BC01CD010E94E5
:100D40004900DC01CB0198AB8FA70FC089E190E08F
:100D50009EA78DA78DA59EA50197F1F79EA78DA7AC
:100D60008FA598A9019798AB8FA78FA598A90097F1
:100D700069F714C069A97AA98BA99CA90E944900A6
:100D8000DC01CB0198AB8FA78FA598A99CA78BA757
:100D90008BA59CA50197F1F79CA78BA7A8E3B0E0D2
:100DA000E8E3F0E08081877F8C93ABE3B0E0EBE396
:100DB000F0E08081282F2F70FE01E95BFF4F8081DA
:100DC000882F90E082959295907F9827807F982732
:100DD000822B8C9380E090E0A0E8BFE38FA398A7DC
:100DE000A9A7BAA76FA178A589A59AA520E030E0A8
:100DF0004AE753E40E941F02DC01CB018BA39CA3B2
:100E0000ADA3BEA36BA17CA18DA19EA120E030E08B
:100E100040E85FE30E94790388232CF481E090E0AE
:100E20009AA389A33FC06BA17CA18DA19EA120E0C4
:100E30003FEF4FE757E40E94190318164CF56FA1D6
:100E400078A589A59AA520E030E040E251E40E940F
:100E50001F02DC01CB01BC01CD010E944900DC0175
:100E6000CB019AA389A30FC089E190E098A38F8F4B
:100E70008F8D98A10197F1F798A38F8F89A19AA1DF
:100E800001979AA389A389A19AA1009769F714C031
:100E90006BA17CA18DA19EA10E944900DC01CB0128
:100EA0009AA389A389A19AA19E8F8D8F8D8D9E8DE6
:100EB0000197F1F79E8F8D8FA8E3B0E0E8E3F0E0B3
:100EC000808188608C9380E090E0A0E8BFE3898F08
:100ED0009A8FAB8FBC8F698D7A8D8B8D9C8D20E026
:100EE00030E04AE753E40E941F02DC01CB018D8B06
:100EF0009E8BAF8BB88F6D897E898F89988D20E00E
:100F000030E040E85FE30E94790388232CF481E01D
:100F100090E09C8B8B8B3FC06D897E898F89988DEB
:100F200020E03FEF4FE757E40E94190318164CF5F5
:100F3000698D7A8D8B8D9C8D20E030E040E251E40C
:100F40000E941F02DC01CB01BC01CD010E944900BF
:100F5000DC01CB019C8B8B8B0FC089E190E09A8BDD
:100F6000898B89899A890197F1F79A8B898B8B896B
:100F70009C8901979C8B8B8B8B899C89009769F747
:100F800014C06D897E898F89988D0E944900DC018B
:100F9000CB019C8B8B8B8B899C89988B8F878F85C2
:100FA00098890197F1F7988B8F87A8E3B0E0E8E381
:100FB000F0E08081877F8C9380E090E0A8ECB2E441
:100FC0008B879C87AD87BE876B857C858D859E854D
:100FD00020E030E04AE753E40E941F02DC01CB012D
:100FE0008F839887A987BA876F81788589859A8545
:100FF00020E030E040E85FE30E94790388232CF48E
:1010000081E090E09E838D833FC06F8178858985E4
:101010009A8520E03FEF4FE757E40E941903181626
:101020004CF56B857C858D859E8520E030E040E227
:1010300051E40E941F02DC01CB01BC01CD010E94E2
:101040004900DC01CB019E838D830FC089E190E0D4
:101050009C838B838B819C810197F1F79C838B838D
:101060008D819E8101979E838D838D819E810097C6
:1010700069F714C06F81788589859A850E94490037
:10108000DC01CB019E838D838D819E819A83898330
:1010900089819A810197F1F79A838983C95BDF4F30
:1010A0000FB6F894DEBF0FBECDBFCF91DF911F9179
:1010B0000F9108950F931F93DF93CF93CDB7DEB7B2
:1010C000C754D0400FB6F894DEBF0FBECDBFFE01AF
:1010D000E95BFF4F8083A8E3B0E0E8E3F0E08081C4
:1010E00082608C93A8E3B0E0E8E3F0E080818B7F3E
:1010F0008C93ABE3B0E0EBE3F0E08081982F9F703E
:10110000FE01E95BFF4F8081807F892B8C93FE017C
:10111000ED5BFF4F80E090E0A0E8BFE38083918328
:10112000A283B3838E01015C1F4FFE01ED5BFF4F75
:10113000608171818281938120E030E04AE753E44D
:101140000E941F02DC01CB01F80180839183A283FE
:10115000B383FE01FF96608171818281938120E0DB
:1011600030E040E85FE30E94790388232CF481E0BB
:1011700090E09EAF8DAF46C0FE01FF966081718109
:101180008281938120E03FEF4FE757E40E941903EB
:10119000181664F5FE01ED5BFF4F6081718182815D
:1011A000938120E030E040E251E40E941F02DC0124
:1011B000CB01BC01CD010E944900DC01CB019EAFF7
:1011C0008DAF0FC089E190E09CAF8BAF8BAD9CAD34
:1011D0000197F1F79CAF8BAF8DAD9EAD01979EAFA0
:1011E0008DAF8DAD9EAD009769F716C0FE01FF96DD
:1011F00060817181828193810E944900DC01CB0171
:101200009EAF8DAF8DAD9EAD9AAF89AF89AD9AADD2
:101210000197F1F79AAF89AFA8E3B0E0E8E3F0E017
:10122000808188608C9380E090E0A0E8BFE38DAB84
:101230009EABAFABB8AF6DA97EA98FA998AD20E0EA
:1012400030E04AE753E40E941F02DC01CB0189AB86
:101250009AABABABBCAB69A97AA98BA99CA920E0DE
:1012600030E040E85FE30E94790388232CF481E0BA
:1012700090E098AB8FA73FC069A97AA98BA99CA9D8
:1012800020E03FEF4FE757E40E94190318164CF592
:101290006DA97EA98FA998AD20E030E040E251E42D
:1012A0000E941F02DC01CB01BC01CD010E9449005C
:1012B000DC01CB0198AB8FA70FC089E190E09EA71E
:1012C0008DA78DA59EA50197F1F79EA78DA78FA548
:1012D00098A9019798AB8FA78FA598A9009769F750
:1012E00014C069A97AA98BA99CA90E944900DC01B4
:1012F000CB0198AB8FA78FA598A99CA78BA78BA58F
:101300009CA50197F1F79CA78BA7A8E3B0E0E8E3C1
:10131000F0E08081877F8C93ABE3B0E0EBE3F0E01B
:101320008081282F2F70FE01E95BFF4F8081882F7D
:1013300090E082959295907F9827807F9827822BC6
:101340008C9380E090E0A0E8BFE38FA398A7A9A7C3
:10135000BAA76FA178A589A59AA520E030E04AE751
:1013600053E40E941F02DC01CB018BA39CA3ADA31D
:10137000BEA36BA17CA18DA19EA120E030E040E83E
:101380005FE30E94790388232CF481E090E09AA324
:1013900089A33FC06BA17CA18DA19EA120E03FEF5E
:1013A0004FE757E40E94190318164CF56FA178A572
:1013B00089A59AA520E030E040E251E40E941F0296
:1013C000DC01CB01BC01CD010E944900DC01CB0155
:1013D0009AA389A30FC089E190E098A38F8F8F8D86
:1013E00098A10197F1F798A38F8F89A19AA10197EE
:1013F0009AA389A389A19AA1009769F714C06BA148
:101400007CA18DA19EA10E944900DC01CB019AA381
:1014100089A389A19AA19E8F8D8F8D8D9E8D019715
:10142000F1F79E8F8D8FA8E3B0E0E8E3F0E08081D4
:1014300088608C9380E090E0A0E8BFE3898F9A8F6A
:10144000AB8FBC8F698D7A8D8B8D9C8D20E030E0C9
:101450004AE753E40E941F02DC01CB018D8B9E8B77
:10146000AF8BB88F6D897E898F89988D20E030E0B1
:1014700040E85FE30E94790388232CF481E090E048
:101480009C8B8B8B3FC06D897E898F89988D20E0E6
:101490003FEF4FE757E40E94190318164CF5698D8A
:1014A0007A8D8B8D9C8D20E030E040E251E40E94EB
:1014B0001F02DC01CB01BC01CD010E944900DC010F
:1014C000CB019C8B8B8B0FC089E190E09A8B898B31
:1014D00089899A890197F1F79A8B898B8B899C89E5
:1014E00001979C8B8B8B8B899C89009769F714C023
:1014F0006D897E898F89988D0E944900DC01CB011E
:101500009C8B8B8B8B899C89988B8F878F859889F7
:101510000197F1F7988B8F87A8E3B0E0E8E3F0E05C
:101520008081877F8C9380E090E0A8ECB2E48B8789
:101530009C87AD87BE876B857C858D859E8520E0E9
:1015400030E04AE753E40E941F02DC01CB018F83A5
:101550009887A987BA876F81788589859A8520E0E1
:1015600030E040E85FE30E94790388232CF481E0B7
:1015700090E09E838D833FC06F81788589859A85B1
:1015800020E03FEF4FE757E40E94190318164CF58F
:101590006B857C858D859E8520E030E040E251E4BE
:1015A0000E941F02DC01CB01BC01CD010E94490059
:1015B000DC01CB019E838D830FC089E190E09C8389
:1015C0008B838B819C810197F1F79C838B838D8129
:1015D0009E8101979E838D838D819E81009769F7FF
:1015E00014C06F81788589859A850E944900DC0145
:1015F000CB019E838D838D819E819A83898389818E
:101600009A810197F1F79A838983C95BDF4F0FB6FF
:10161000F894DEBF0FBECDBFCF91DF911F910F9128
:101620000895DF93CF93CDB7DEB72E970FB6F8941A
:10163000DEBF0FBECDBFAAE3B0E0EAE3F0E08081F9
:10164000806F8C93A7E3B0E0E7E3F0E080818260F5
:101650008C93A7E3B0E0E7E3F0E0808184608C93B3
:10166000A7E3B0E0E7E3F0E0808188608C93A8E333
:10167000B0E0E8E3F0E08081877F8C9380E090E049
:10168000AAEFB4E48B879C87AD87BE876B857C858A
:101690008D859E8520E030E04AE753E40E941F02DA
:1016A000DC01CB018F839887A987BA876F81788502
:1016B00089859A8520E030E040E85FE30E94790365
:1016C00088232CF481E090E09E838D833FC06F815E
:1016D000788589859A8520E03FEF4FE757E40E949F
:1016E000190318164CF56B857C858D859E8520E049
:1016F00030E040E251E40E941F02DC01CB01BC015A
:10170000CD010E944900DC01CB019E838D830FC077
:1017100089E190E09C838B838B819C810197F1F719
:101720009C838B838D819E8101979E838D838D8188
:101730009E81009769F714C06F81788589859A85A5
:101740000E944900DC01CB019E838D838D819E81A7
:101750009A83898389819A810197F1F79A83898392
:1017600083E30E94A30582E30E94A30588E20E940E
:10177000A30582E00E94A30581E00E94A3058CE0FE
:101780000E94A3052E960FB6F894DEBF0FBECDBF04
:10179000CF91DF910895DF93CF9300D00F92CDB713
:1017A000DEB79B838A8319820EC08981282F30E09F
:1017B0008A819B81FC01E20FF31F80810E945A08FD
:1017C00089818F5F89838981282F30E08A819B817D
:1017D000FC01E20FF31F8081882339F70F900F90EF
:1017E0000F90CF91DF910895DF93CF9300D0CDB7C5
:1017F000DEB789836A838981882331F48A818F7077
:1018000080580E94A30506C08A8180518F74805839
:101810000E94A3050F900F90CF91DF910895DF9361
:10182000CF93CDB7DEB762970FB6F894DEBF0FBE89
:10183000CDBF9A8B898B89899A899E012F5F3F4FF3
:10184000B9014AE050E00E94C210CE0101960E9408
:10185000CB0B62960FB6F894DEBF0FBECDBFCF9113
:10186000DF910895DF93CF93CDB7DEB781E00E947B
:10187000A305CF91DF9108951F920F920FB60F929B
:1018800011248F939F93DF93CF93CDB7DEB781E081
:1018900090E09093E1008093E000CF91DF919F91E1
:1018A0008F910F900FBE0F901F901895DF93CF93DD
:1018B00000D0CDB7DEB7AFE5B0E0EFE5F0E0808176
:1018C00080688C93ABE5B0E0EBE5F0E0808180646C
:1018D0008C93A5E5B0E0E5E5F0E080818E7F8C9308
:1018E000A5E5B0E0E5E5F0E0808182608C93A4E3BB
:1018F000B0E0E4E3F0E080818E7F8C93A4E3B0E07D
:10190000E4E3F0E080818D7F8C93A7E3B0E0E7E330
:10191000F0E080818F7E8C93A7E3B0E0E7E3F0E016
:1019200080818F7D8C93A7E3B0E0E7E3F0E08081D6
:101930008F7B8C93A7E3B0E0E7E3F0E080818F77C3
:101940008C93A4E3B0E0E4E3F0E08081877F8C93A4
:10195000A4E3B0E0E4E3F0E080818F7E8C93A1E328
:10196000B0E0E1E3F0E0808181608C93A4E3B0E03B
:10197000E4E3F0E0808184608C93A4E3B0E0E4E3EE
:10198000F0E0808180688C93A1E3B0E0E1E3F0E0D7
:10199000808188608C93A1E3B0E0E1E3F0E0808196
:1019A0008B7F8C93AAE3B0E0EAE3F0E0808188606B
:1019B0008C93AFE4B0E0EFE4F0E0808182608C9340
:1019C000AEE4B0E0EEE4F0E0808188608C93AEE4B9
:1019D000B0E0EEE4F0E0808180618C93AEE4B0E0B2
:1019E000EEE4F0E0808182608C93AFE4B0E0EFE45D
:1019F000F0E0808180628C93AFE4B0E0EFE4F0E04F
:101A0000808180688C93E6E4F0E08FE39CE9918329
:101A10008083ECE4F0E011821082A1E3B0E0E1E326
:101A2000F0E0808180628C93A1E3B0E0E1E3F0E03C
:101A3000808180618C93EAE4F0E088EB9BE0918305
:101A40008083E8E4F0E088EB9BE0918380830E9450
:101A5000AD0F2091D0003091D1008091D2009091B3
:101A6000D300280F391F8091D4009091D500280F02
:101A7000391F8091D6009091D700820F931F9A83CF
:101A800089832091CD003091CE0089819A81A9016E
:101A9000481B590BCA019093CE008093CD000E9441
:101AA000110B80E060E00E94F40B80E690E00E9461
:101AB000CB0B81E090E00E9405100E94320C109246
:101AC000E1001092E0000E94AD0F80E060E00E9413
:101AD000F40B88E690E00E94CB0B8091CD009091B2
:101AE000CE000E940F0C81E060E00E94F40B809118
:101AF000D0009091D10081309105C9F48091E0002F
:101B00009091E1008130910591F486E790E00E9488
:101B1000CB0BA2E3B0E0E2E3F0E0808181608C9344
:101B200081E090E09093E3008093E20032C08091E6
:101B3000D0009091D10081309105C9F48091E000EE
:101B40009091E100009799F48BE790E00E94CB0B15
:101B5000A2E3B0E0E2E3F0E080818E7F8C93ABE320
:101B6000B0E0EBE3F0E0808188608C9312C080E805
:101B700090E00E94CB0BA2E3B0E0E2E3F0E08081D2
:101B80008E7F8C93ABE3B0E0EBE3F0E08081877F66
:101B90008C938091D0009091D1000097B1F4809106
:101BA000E2009091E3008130910579F48091E000AA
:101BB0009091E1008130910541F41092E100109282
:101BC000E0001092E3001092E20081E064E00E94E5
:101BD000F40B8091D2009091D30081309105B9F43B
:101BE00085E890E00E94CB0BA5E3B0E0E5E3F0E0F0
:101BF000808184608C938091E0009091E10081303D
:101C0000910581F41092E1001092E0000BC08AE887
:101C100090E00E94CB0BA5E3B0E0E5E3F0E080812B
:101C20008B7F8C9381E068E00E94F40B8091D4005C
:101C30009091D50081309105B9F48FE890E00E9431
:101C4000CB0BA5E3B0E0E5E3F0E0808180688C9306
:101C50008091E0009091E1008130910581F4109233
:101C6000E1001092E0000BC084E990E00E94CB0BF1
:101C7000A5E3B0E0E5E3F0E080818F778C9381E02D
:101C80006CE00E94F40B8091D6009091D7008130D7
:101C90009105B9F489E990E00E94CB0BA2E3B0E092
:101CA000E2E3F0E0808188608C938091E000909185
:101CB000E1008130910581F41092E1001092E00082
:101CC0000BC08EE990E00E94CB0BA2E3B0E0E2E310
:101CD000F0E08081877F8C93E3E3F0E08081882FC0
:101CE00090E081709070009769F58091D800909194
:101CF000D900009739F58091CD009091CE0018164B
:101D000019069CF481E090E09093D9008093D8006C
:101D10008091DA009091DB000097A1F5EAE4F0E011
:101D200080EA9FE0918380832DC081E060E00E9483
:101D3000F40B83EA90E00E94CB0B81E090E00E94DC
:101D4000051020C0E3E3F0E08081882F90E08170EF
:101D500090708823B9F08091D8009091D90081309B
:101D6000910581F48091DA009091DB00009751F4A5
:101D7000EAE4F0E088EB9BE0918380831092D90045
:101D80001092D800E3E3F0E080818695882F90E000
:101D900081709070009761F48091DA009091DB007F
:101DA000009731F481E090E09093DB008093DA00BB
:101DB0008091D8009091D9008130910541F58091B2
:101DC000DA009091DB008130910509F58091CD001A
:101DD0009091CE0001979093CE008093CD00E3E3E5
:101DE000F0E080818695882F90E081709070009758
:101DF000B1F3EAE4F0E088EB9BE0918380831092FA
:101E0000D9001092D8001092DB001092DA00E3E3C0
:101E1000F0E08081869586958695882F90E0817088
:101E20009070009769F58091DC009091DD0000973B
:101E300039F58091CD009091CE00843091059CF4CD
:101E400081E090E09093DD008093DC008091DE00E3
:101E50009091DF000097B9F5E8E4F0E080EA9FE0B8
:101E60009183808330C081E060E00E94F40B84EBBA
:101E700090E00E94CB0B81E090E00E94051023C00F
:101E8000E3E3F0E08081869586958695882F90E043
:101E9000817090708823B9F08091DC009091DD0012
:101EA0008130910581F48091DE009091DF000097F0
:101EB00051F4E8E4F0E088EB9BE09183808310929A
:101EC000DD001092DC00E3E3F0E0808182958F700A
:101ED000882F90E081709070009761F48091DE000F
:101EE0009091DF00009731F481E090E09093DF0063
:101EF0008093DE008091DC009091DD0081309105BF
:101F000009F0E1CD8091DE009091DF0081309105F4
:101F100009F0D9CD8091CD009091CE00019690939B
:101F2000CE008093CD00E3E3F0E0808182958F7056
:101F3000882F90E0817090700097A9F3E8E4F0E0BA
:101F400088EB9BE0918380831092DD001092DC008F
:101F50001092DF001092DE00B6CDDF93CF93CDB7A5
:101F6000DEB71092D1001092D0001092D3001092E0
:101F7000D2001092D5001092D4001092D700109287
:101F8000D600E6E3F0E0808182958F70882F90E0A4
:101F900081709070009731F481E090E09093D100CF
:101FA0008093D000E6E3F0E080818295869587708B
:101FB000882F90E081709070009731F481E090E07C
:101FC0009093D3008093D200E6E3F0E08081829585
:101FD000869586958370882F90E081709070009729
:101FE00031F481E090E09093D5008093D400E6E353
:101FF000F0E08081882334F081E090E09093D70076
:102000008093D600CF91DF910895DF93CF9300D0D6
:1020100000D000D0CDB7DEB79E838D831C821B829B
:10202000A3E5B0E0E3E5F0E0808188608C93A3E570
:10203000B0E0E3E5F0E080818F7B8C93A3E5B0E036
:10204000E3E5F0E0808181608C93A3E5B0E0E3E517
:10205000F0E0808184608C93A3E5B0E0E3E5F0E0FC
:1020600080818D7F8C93ECE5F0E08DE780838D811E
:102070009E818130910529F48DE790E09A838983D0
:1020800037C08D819E818230910529F48AEF90E0DE
:102090009A8389832DC08D819E818430910529F496
:1020A00084EF91E09A83898323C08D819E8186305D
:1020B0009105F1F48EEE92E09A83898319C0E8E5E8
:1020C000F0E080818695882F90E081709070009775
:1020D000B1F3E2E5F0E010828B819C8101969C8354
:1020E0008B83A8E5B0E0E8E5F0E0808182608C9326
:1020F0002B813C8189819A818217930704F7E3E55C
:10210000F0E0108226960FB6F894DEBF0FBECDBF6A
:10211000CF91DF9108952F923F924F925F926F92ED
:102120007F928F929F92AF92BF92CF92DF92EF9267
:10213000FF920F931F93CF93DF93CDB7DEB7CA1BE8
:10214000DB0B0FB6F894DEBF0FBECDBF09942A8813
:10215000398848885F846E847D848C849B84AA84BB
:10216000B984C884DF80EE80FD800C811B81AA8148
:10217000B981CE0FD11D0FB6F894DEBF0FBECDBF13
:10218000ED010895FB019F01E8944230C4F045320F
:10219000B4F44A3029F497FB1EF4909581959F4F33
:1021A000642F77270E94F310805D8A330CF0895DDD
:1021B0008193CB010097A1F716F45DE25193108251
:1021C000C9010C94E310DC01FC01672F71917723A6
:1021D000E1F7329704C07C916D9370836291AE17E2
:1021E000BF07C8F30895AA1BBB1B51E107C0AA1F74
:1021F000BB1FA617B70710F0A61BB70B881F991FA8
:102200005A95A9F780959095BC01CD010895F89451
:02221000FFCFFE
:1022120077656C636F6D65006672656520736C6FC0
:1022220074733A20200053313A460053313A580031
:1022320053313A450053323A460053323A4500533D
:10224200333A460053333A450053343A4600533446
:102252003A45005041524B494E472049532046557A
:102262004C4C20005041524B494E47204953204587
:102272004D5054590000000000000000000400000E
:00000001FF
